:100000000C945C000C946E000C946E000C946E00CA
:100010000C946E000C946E000C946E000C946E00A8
:100020000C946E000C946E000C946E000C946E0098
:100030000C946E000C946E000C946E000C946E0088
:100040000C948F000C946E000C946E000C946E0057
:100050000C946E000C946E000C946E000C946E0068
:100060000C946E000C946E00000000080002010069
:100070000003040700000000000000000000000072
:10008000250028002B0000000000240027002A0083
:10009000040404040404040402020202020203032E
:1000A0000303030301020408102040800102040836
:1000B000102001020408102011241FBECFEFD8E049
:1000C000DEBFCDBF21E0A0E0B1E001C01D92A930AC
:1000D000B207E1F70E94D9000C94B8010C9400001B
:1000E00090E0FC01EC55FF4F249180579F4FFC019D
:1000F0008491882399F090E0880F991FFC01EA57BA
:10010000FF4FA591B491FC01E458FF4F8591949164
:100110008FB7F894EC91E22BEC938FBF08951F9268
:100120000F920FB60F9211242F933F938F939F93AB
:10013000AF93BF938091050190910601A0910701B3
:10014000B09108013091040123E0230F2D3758F5B9
:100150000196A11DB11D2093040180930501909388
:100160000601A0930701B0930801809100019091CE
:100170000101A0910201B09103010196A11DB11DE1
:100180008093000190930101A0930201B0930301B9
:10019000BF91AF919F918F913F912F910F900FBE83
:1001A0000F901F90189526E8230F0296A11DB11DF0
:1001B000D2CF789484B5826084BD84B5816084BDDB
:1001C00085B5826085BD85B5816085BD80916E00F5
:1001D000816080936E001092810080918100826026
:1001E0008093810080918100816080938100809163
:1001F00080008160809380008091B1008460809352
:10020000B1008091B00081608093B00080917A004D
:10021000846080937A0080917A00826080937A0073
:1002200080917A00816080937A0080917A00806862
:1002300080937A001092C10089E00E94700089E0EA
:100240000E947000E1E7F0E08491833009F450C02F
:1002500058F5813009F43AC0823009F443C08491E2
:10026000EDEAF0E09491E9E9F0E0E491EE2399F110
:10027000882359F0833009F464C008F057C08130F6
:1002800009F465C0823009F466C0F0E0EE0FFF1F8C
:10029000E458FF4FA591B4918FB7F894EC919095E5
:1002A0009E239C938FBF17C0873071F18830A9F1CE
:1002B0008430A9F6809180008062809380008FE76F
:1002C00090E090938B0080938A0005C084B580688D
:1002D00084BD8FE787BDC0E0D0E02097F1F30E9496
:1002E0000000FBCF84B5806284BD8FE788BDF3CF6B
:1002F000809180008068809380008FE790E09093E9
:10030000890080938800E7CF8091B0008068809357
:10031000B0008FE78093B300DECF8091B0008062A1
:100320008093B0008FE78093B400D5CF8730B1F0D1
:100330008830D1F0843009F0A8CF809180008F7D83
:1003400003C0809180008F77809380009ECF84B51A
:100350008F7784BD9ACF84B58F7DFBCF8091B0001D
:100360008F778093B00091CF8091B0008F7DF9CFCF
:04037000F894FFCF2F
:00000001FF
