:100000000C945D000C9485000C9485000C94850084
:100010000C9485000C9485000C9485000C9485004C
:100020000C9485000C9485000C9485000C9485003C
:100030000C9485000C9485000C9485000C9485002C
:100040000C94BE020C9485000C9485000C948500E1
:100050000C9485000C9485000C9485000C9485000C
:100060000C9485000C94850000000008000201003B
:100070000003040700000000000000000000000072
:10008000250028002B0000000000240027002A0083
:10009000040404040404040402020202020203032E
:1000A0000303030301020408102040800102040836
:1000B0001020010204081020B10311241FBECFEF4D
:1000C000D8E0DEBFCDBF21E0AEE1B1E001C01D92BE
:1000D000A334B207E1F711E0A0E0B1E0E0E0FCE01A
:1000E00002C005900D92AE31B107D9F710E0CDE511
:1000F000D0E004C02197FE010E940604CC35D10750
:10010000C9F70E9408030C94FE050C94000090E0CF
:10011000FC01EC55FF4F249180579F4FFC018491C7
:10012000882399F090E0880F991FFC01EA57FF4F50
:10013000A591B491FC01E458FF4F859194918FB73C
:10014000F894EC91E22BEC938FBF089590E0FC01C2
:10015000E859FF4F2491FC01EC55FF4F3491FC010D
:10016000E057FF4FE491EE23C9F0222339F023300A
:1001700001F1A8F4213019F1223029F1F0E0EE0F5D
:10018000FF1FE458FF4FA591B4918FB7F894EC91FD
:10019000611126C030953E233C938FBF08952730D0
:1001A000A9F02830C9F0243049F7809180008F7D74
:1001B00003C0809180008F7780938000DFCF84B56B
:1001C0008F7784BDDBCF84B58F7DFBCF8091B0006E
:1001D0008F778093B000D2CF8091B0008F7DF9CF20
:1001E0003E2BDACF3FB7F894809123019091240100
:1001F000A0912501B091260126B5A89B05C02F3FEF
:1002000019F00196A11DB11D3FBFBA2FA92F982F3C
:100210008827BC01CD01620F711D811D911D42E037
:10022000660F771F881F991F4A95D1F708958F92FF
:100230009F92AF92BF92CF92DF92EF92FF924B01CB
:100240005C010E94F2006B017C010E94F2006C19BB
:100250007D098E099F09683E734081059105A8F3C9
:1002600021E0821A9108A108B10888EEC80E83E047
:10027000D81EE11CF11C81149104A104B10429F7DA
:10028000FF90EF90DF90CF90BF90AF909F908F90B6
:100290000895AF92BF92CF92DF92EF92FF920F93A9
:1002A0001F93CF93DF936C017B018B01040F151F0C
:1002B000EB015E01AE18BF08C017D10759F0699174
:1002C000D601ED91FC910190F081E02DC6010995D8
:1002D000892B79F7C501DF91CF911F910F91FF9085
:1002E000EF90DF90CF90BF90AF900895089590E089
:1002F00080E00895CF93DF93EC0160E08E810E944F
:10030000A60061E08E810E94A60060E08E810E94BE
:10031000A6008BE891E00197F1F7DF91CF91089566
:10032000CF92DF92EF92FF920F931F93CF93DF93C1
:100330006C017C0187E0E80EF11CD0E0C0E0062FE4
:1003400010E0B8010C2E02C0759567950A94E2F78B
:100350006170F70181917F010E94A6002196C4304F
:10036000D10579F7C601DF91CF911F910F91FF90D1
:10037000EF90DF90CF900C947A01CF92DF92EF92C2
:10038000FF920F931F93CF93DF93EC01F62E642F10
:100390008C810E94A6008D818F3F19F060E00E9441
:1003A000A6000F2D10E08F8584FF25C06E0187E029
:1003B000C80ED11CF12CE12CB8010E2C02C0759591
:1003C00067950A94E2F76170F60181916F010E94CE
:1003D000A600FFEFEF1AFF0A88E0E816F10461F7C4
:1003E000CE01DF91CF911F910F91FF90EF90DF90A1
:1003F000CF900C947A01B80184E0759567958A9541
:10040000E1F7CE010E9490016F2DCE01DF91CF91D7
:100410001F910F91FF90EF90DF90CF900C9490017F
:1004200040E0682F87E291E00C94BD01CF93DF9309
:10043000823029F490913601986090933601809330
:100440003A0110923B0180E480933C0180E180936B
:100450003D0180E580933E0180912B010E94870041
:1004600080912C018F3F11F00E94870080912D0117
:100470000E948700C7E2D1E09E012752314080915F
:10048000360184FD0AC084E090E0219628173907E0
:100490003CF48E810E948700EFCF88E090E0F5CF9A
:1004A0008BE39DE00197F1F760E080912B010E94C2
:1004B000A60060E080912D010E94A60080912C0191
:1004C0008F3F19F060E00E94A6008091360184FD04
:1004D00039C063E087E291E00E949001CBE4D6E46A
:1004E000CE010197F1F763E087E291E00E9490016D
:1004F0002197F1F763E087E291E00E94900183E5A4
:1005000092E00197F1F762E087E291E00E949001AA
:100510008091360180620E94100284E0809337014E
:100520008CE00E94100281E00E9410028BE39FE1A8
:100530000197F1F782E08093380186E0DF91CF9157
:100540000C94100280620E9410028BE496E40197E2
:10055000F1F78091360180620E94100283E592E0FB
:100560000197F1F78091360180620E941002D0CF8E
:1005700041E00E94BD0181E090E008951F920F923A
:100580000FB60F9211242F933F938F939F93AF93A6
:10059000BF9380911F0190912001A0912101B09102
:1005A000220130911E0123E0230F2D3758F50196CB
:1005B000A11DB11D20931E0180931F019093200166
:1005C000A0932101B09322018091230190912401F5
:1005D000A0912501B09126010196A11DB11D809326
:1005E000230190932401A0932501B0932601BF918C
:1005F000AF919F918F913F912F910F900FBE0F90D0
:100600001F90189526E8230F0296A11DB11DD2CF89
:10061000789484B5826084BD84B5816084BD85B5DD
:10062000826085BD85B5816085BD80916E008160E9
:1006300080936E001092810080918100826080938F
:100640008100809181008160809381008091800091
:100650008160809380008091B10084608093B100BC
:100660008091B00081608093B00080917A008460B6
:1006700080937A0080917A00826080937A008091E2
:100680007A00816080937A0080917A0080688093FC
:100690007A001092C10082E00E941602CBE3DFE1F3
:1006A00000E010E081E00E941002CE010197F1F716
:1006B000E1E080913A018111E0E0E195F0E0E95D4F
:1006C000FE4F84898D5F80680E9410026BE070E0AD
:1006D00090E080E00E9431057C0150E040E000970E
:1006E00041F0FC01108262E171E00E94F7054AE0EE
:1006F00050E0B70187E291E00E94490160ED77E0A8
:1007000080E090E00E94170193E0C92ED12C88E18F
:100710000E9410026CE271E080E090E00E941701FC
:10072000F1E0CF1AD10899F786E0C82ED12C8CE1E0
:100730000E9410026CE271E080E090E00E941701DC
:1007400081E0C81AD10899F7E114F10419F0C70142
:100750000E94A8040115110509F4A4CF0E9400000D
:10076000A1CFE7E2F1E0138212828AE091E0918367
:1007700080838BE084838FEF858389E0868385E0A7
:10078000878384E0808783E0818782E08287138685
:10079000148615861686178681E00C9416022F9211
:1007A0003F924F925F926F927F928F929F92AF9201
:1007B000BF92CF92DF92EF92FF920F931F93CF934E
:1007C000DF93CDB7DEB7CA1BDB0B0FB6F894DEBFE5
:1007D0000FBECDBF09942A88398848885F846E840B
:1007E0007D848C849B84AA84B984C884DF80EE8055
:1007F000FD800C811B81AA81B981CE0FD11D0FB65E
:10080000F894DEBF0FBECDBFED010895EE0FFF1FC0
:100810000590F491E02D09940F931F93CF93DF93EC
:100820008230910510F482E090E0E0914101F09176
:10083000420130E020E0B0E0A0E0309799F42115CB
:10084000310509F44AC0281B390B24303105D8F58D
:100850008A819B816115710589F1FB0193838283F4
:10086000FE0111C04081518102811381481759074F
:10087000E0F04817590799F4109761F012960C931D
:10088000129713961C933296CF01DF91CF911F914F
:100890000F9108950093410110934201F4CF211567
:1008A000310551F04217530738F0A901DB019A01D5
:1008B000BD01DF01F801C1CFEF01F9CF90934201F3
:1008C00080934101CDCFFE01E20FF31F81939193FD
:1008D0002250310939832883D7CF20913F013091AD
:1008E0004001232B41F42091020130910301309308
:1008F000400120933F012091000130910101211519
:10090000310541F42DB73EB74091040150910501E6
:10091000241B350BE0913F01F0914001E217F307F2
:10092000A0F42E1B3F0B2817390778F0AC014E5F5F
:100930005F4F2417350748F04E0F5F1F509340015B
:1009400040933F01819391939FCFF0E0E0E09CCFF3
:10095000CF93DF930097E9F0FC0132971382128264
:10096000A0914101B0914201ED0130E020E01097EB
:10097000A1F420813181820F931F20913F0130919A
:1009800040012817390709F061C0F0934001E09356
:100990003F01DF91CF910895EA01CE17DF07E8F517
:1009A0004A815B819E0141155105B1F7E901FB8345
:1009B000EA8349915991C40FD51FEC17FD0761F4E3
:1009C000808191810296840F951FE9019983888324
:1009D000828193819B838A83F0E0E0E012968D917F
:1009E0009C9113970097B9F52D913C911197CD01EA
:1009F0000296820F931F20913F01309140012817EA
:100A0000390739F6309751F51092420110924101A1
:100A1000B0934001A0933F01BCCFD383C2834081F8
:100A20005181840F951FC817D90761F44E5F5F4F3E
:100A300088819981480F591F518340838A819B8106
:100A4000938382832115310509F0B0CFF0934201E1
:100A5000E09341019ECFFD01DC01C0CF13821282E1
:100A6000D7CFB0E0A0E0E7E3F5E00C94D1038C0130
:100A7000009751F4CB010E940C048C01C801CDB742
:100A8000DEB7E0E10C94ED03FC01E60FF71F9C01DB
:100A900022503109E217F30708F49DC0D901CD9126
:100AA000DC911197C617D70798F0C530D10530F300
:100AB000CE0104978617970708F3C61BD70B22971A
:100AC000C193D1936D937C93CF010E94A804D6CF9C
:100AD0005B01AC1ABD0A4C018C0E9D1EA091410118
:100AE000B0914201512C412CF12CE12C109731F5A1
:100AF00080913F01909140018815990509F05CC0F3
:100B00004616570608F058C08091000190910101E7
:100B1000009741F48DB79EB74091040150910501B3
:100B2000841B950BE817F90708F055C0F0934001B6
:100B3000E0933F01F90171836083A0CF8D919C9177
:100B4000119712966C90129713967C901397A81594
:100B5000B90559F56C0142E0C40ED11CCA14DB047E
:100B600020F1AC014A195B09DA011296159780F061
:100B70006282738251834083D9016D937C93E11427
:100B8000F10471F0D7011396FC93EE93129776CF90
:100B900022968C0F9D1FF90191838083F301EFCF83
:100BA000F0934201E093410169CF4816590608F4D9
:100BB0002C017D01D3019ACFCB010E940C047C0152
:100BC000009749F0AE01B8010E94EE05C8010E94ED
:100BD000A804870153CF10E000E050CFFB01DC01F7
:100BE00002C001900D9241505040D8F70895FB018A
:100BF000DC0101900D920020E1F70895F894FFCFF9
:100C000000004301800000000000B80249017701A4
:0E0C100076014F6C61206D756E646F210000DF
:00000001FF
