:020000040000FA
:100000000C9458000C9480000C9480000C94800098
:100010000C9480000C9480000C9480000C94800060
:100020000C9480000C9480000C9480000C94800050
:100030000C9480000C9480000C9480000C94800040
:100040000C941C020C9480000C9480000C94800092
:100050000C9480000C9480000C9480000C94800020
:100060000C9466020C94800000000000250028001B
:100070002B00040404040404040402020202020229
:10008000030303030303010204081020408001025C
:1000900004081020010204081020000000080002DB
:1000A0000100000304070000000000000000B40489
:1000B00011241FBECFEFD8E0DEBFCDBF11E0A0E01E
:1000C000B1E0EAE9F9E002C005900D92A231B10772
:1000D000D9F721E0A2E1B1E001C01D92A13EB20733
:1000E000E1F710E0C8E5D0E004C02197FE010E94CE
:1000F000C504C735D107C9F70E9485030C94CB040A
:100100000C9400000895089590E0FC01E656FF4F1E
:100110002491FC01EA57FF4F3491FC01EE58FF4F48
:10012000E491EE23C9F0222339F0233001F1A8F441
:10013000213019F1223029F1F0E0EE0FFF1FE859CC
:10014000FF4FA591B4918FB7F894EC91611126C03F
:1001500030953E233C938FBF08952730A9F0283077
:10016000C9F0243049F7809180008F7D03C08091D1
:1001700080008F7780938000DFCF84B58F7784BD38
:10018000DBCF84B58F7DFBCF8091B0008F778093DC
:10019000B000D2CF8091B0008F7DF9CF3E2BDACF67
:1001A0003FB7F89480917B0190917C01A0917D01F3
:1001B000B0917E0126B5A89B05C02F3F19F001968E
:1001C000A11DB11D3FBFBA2FA92F982F8827BC01B1
:1001D000CD01620F711D811D911D42E0660F771FD9
:1001E000881F991F4A95D1F7089520915301260F32
:1001F0003327331F21323105ECF42091AB01FC0190
:1002000090E080E0243069F082E00895A0915301ED
:100210002191AC014D5C5E4FA40FB52FB11D2C9305
:100220000196861798F380915301680F60935301EC
:1002300080E0089581E008951092AB0181E0809301
:10024000AA011092850161E082E10E94840061E0D0
:1002500083E10E948400E9EBF0E080818E7F80835F
:1002600080818D7F808388E48093B80085E48093CB
:10027000BC000895CF93DF9391E0909332018823DF
:10028000B9F0C091B800D091BA008091BC008A7BCF
:100290008093BC0060E082E10E94840060E083E122
:1002A0000E9484000E941C01D093BA00C093B80041
:1002B000DF91CF9108950895E091840180918301A9
:1002C000E81730F4F0E0EE5EFE4F808190E0089594
:1002D0008FEF9FEF089590918401809183012FEF1C
:1002E0003FEF981748F4E92FF0E0EE5EFE4F2081D3
:1002F00030E09F5F90938401C9010895809183014C
:1003000090918401891B990B0895CF92DF92EF920F
:10031000FF920F931F93CF93DF937C01CB018A0150
:100320002091B101222389F0EB016B01C40ED51E8F
:10033000CC15DD0569F06991D701ED91FC91019033
:10034000F081E02DC7010995F3CF642F0E94F500DD
:10035000C801DF91CF911F910F91FF90EF90DF9037
:10036000CF900895CF93DF931F92CDB7DEB7698307
:100370002091B1012223F9F02091D401203258F0CC
:1003800021E030E0FC013383228390E080E00F9095
:10039000DF91CF9108958091B201E82FF0E0ED5404
:1003A000FE4F998190838F5F8093B2018093D40137
:1003B00081E090E0ECCF61E0CE0101960E94F50073
:1003C000F7CF90E080E0089585ED8093BC008091A8
:1003D000AD019091AE01A091AF01B091B00107962F
:1003E000A11DB11D23E0B695A795979587952A95F0
:1003F000D1F72091BC0024FD03C01092AB010895F9
:100400004091AD015091AE016091AF017091B0018A
:10041000452B462B472B69F30097A105B10541F009
:1004200025E32A95F1F700000197A109B109E1CF71
:100430008091AC010C943A011F920F920FB60F926B
:1004400011242F933F938F939F93AF93BF938091EA
:10045000770190917801A0917901B0917A01309162
:10046000760123E0230F2D3758F50196A11DB11D0C
:10047000209376018093770190937801A09379017E
:10048000B0937A0180917B0190917C01A0917D01D4
:10049000B0917E010196A11DB11D80937B019093C7
:1004A0007C01A0937D01B0937E01BF91AF919F919C
:1004B0008F913F912F910F900FBE0F901F90189525
:1004C00026E8230F0296A11DB11DD2CF1F920F92D5
:1004D0000FB60F9211242F933F934F935F936F9317
:1004E0007F938F939F93AF93BF93EF93FF938091ED
:1004F000B900887F803609F44AC0F0F5883209F4E3
:10050000A7C018F5803109F49BC0B8F4882309F41A
:10051000F9C0883009F494C0FF91EF91BF91AF9179
:100520009F918F917F916F915F914F913F912F910B
:100530000F900FBE0F901F901895883109F488C056
:10054000803251F78093A90114C0803409F49DC012
:1005500040F48033B9F38833F9F68093A90185EC30
:10056000B0C0803509F485C0883509F496C0883458
:1005700099F60E94E401D0CF883909F48CC038F58F
:10058000883729F050F4883611F0803729F683E057
:100590008093AB011092750157C0883809F47BC075
:1005A000803919F0803809F0B7CF80917501803219
:1005B00008F071C0E091750181E08E0F80937501A4
:1005C0008091BB00F0E0EB5AFE4F80833DC0803B42
:1005D00039F0E0F4803A09F479C0883A09F09CCF08
:1005E00084E08093AB011092540110925301E0918A
:1005F0008101F091820109958091530181110FC011
:1006000081E0809353011092330109C0803C09F4CA
:10061000A6CF883C09F4A3CF883B09F07DCFE091B9
:10062000540181E08E0F80935401F0E0ED5CFE4FA9
:1006300080818093BB00909154018091530129C027
:10064000809186018093BB0085EC8093BC0064CFD1
:100650009091A8018091A701981758F5E091A80101
:1006600081E08E0F8093A801F0E0E957FE4F808172
:10067000E9CFE091A80181E08E0F8093A8018091DD
:10068000BB00F0E0E957FE4F80839091A801809174
:10069000A7019817C8F285E8D8CFE091A80181E0BA
:1006A0008E0F8093A8018091BB00F0E0E957FE4FC8
:1006B00080838091AA0181115CCF81E080938501C4
:1006C00084EA8093BC001092AB0126CF85EC809326
:1006D000BC001092AB0180917501803230F4E09142
:1006E0007501F0E0EB5AFE4F10826091750170E0E9
:1006F000E0917F01F091800185E591E009951092EC
:1007000075010ACF1092A90134CF789484B5826024
:1007100084BD84B5816084BD85B5826085BD85B5A5
:10072000816085BD80916E00816080936E00109223
:10073000810080918100826080938100809181009E
:10074000816080938100809180008160809380002F
:100750008091B10084608093B1008091B00081608D
:100760008093B00080917A00846080937A008091B9
:100770007A00826080937A0080917A008160809311
:100780007A0080917A00806880937A001092C1008C
:1007900010928401109283011092B2011092D40140
:1007A0000E941C0182E890E0909382018093810175
:1007B00083E890E09093800180937F0181E08093B3
:1007C000B10180E28093D30160EF85ED91E00E945A
:1007D000B201C091D401C13208F091C00E94D00092
:1007E0006B017C018091AB01811164C082E0809338
:1007F000AB0181E08093AA018FEF8093A901109251
:10080000A801C093A701A3EBB1E0E7E8F1E080E025
:10081000C81382C010928601809186018064809303
:10082000860180918501813009F07AC0109285019E
:100830000E94D0006B017C01809186018093BB00F7
:100840008091AD019091AE01A091AF01B091B00146
:10085000892B8A2B8B2B99F00E94D0000091AD013F
:100860001091AE012091AF013091B0016C197D095A
:100870008E099F090617170728073907E0F18091AD
:10088000BC0083FDD9CF85EC8093BC000E94D000D2
:100890006B017C018091AB01823009F443C08091EF
:1008A000A9018F3F61F18091A901803241F18091CE
:1008B000A90125C08091AD019091AE01A091AF0139
:1008C000B091B001892B8A2B8B2B09F48BCF0E941E
:1008D000D0000091AD011091AE012091AF01309197
:1008E000B0016C197D098E099F09061717072807A3
:1008F000390708F077CF8091AC010E943A0110923D
:10090000B2011092D4011092B101C0E0D0E0209762
:10091000F1F30E940000FBCF9D9191938F5F78CF00
:1009200085EEB2CF8091AD019091AE01A091AF0163
:10093000B091B001892B8A2B8B2B09F4ABCF0E948D
:10094000D0000091AD011091AE012091AF01309126
:10095000B0016C197D098E099F0906171707280732
:10096000390708F097CFC7CFE5EDF1E01382128287
:1009700088EE93E0A0E0B0E084839583A683B783FC
:1009800084E091E0918380830895EE0FFF1F05902E
:10099000F491E02D0994F894FFCF00000000B2011B
:0C09A0008501E1015B017E016B015C013F
:107E0000112484B714BE81FFF0D085E080938100F7
:107E100082E08093C00088E18093C10086E0809377
:107E2000C20080E18093C4008EE0C9D0259A86E02C
:107E300020E33CEF91E0309385002093840096BBD3
:107E4000B09BFECF1D9AA8958150A9F7CC24DD24C4
:107E500088248394B5E0AB2EA1E19A2EF3E0BF2EE7
:107E6000A2D0813461F49FD0082FAFD0023811F036
:107E7000013811F484E001C083E08DD089C08234E0
:107E800011F484E103C0853419F485E0A6D080C0E4
:107E9000853579F488D0E82EFF2485D0082F10E0AE
:107EA000102F00270E291F29000F111F8ED06801E7
:107EB0006FC0863521F484E090D080E0DECF843638
:107EC00009F040C070D06FD0082F6DD080E0C81688
:107ED00080E7D80618F4F601B7BEE895C0E0D1E017
:107EE00062D089930C17E1F7F0E0CF16F0E7DF06D8
:107EF00018F0F601B7BEE89568D007B600FCFDCFD4
:107F0000A601A0E0B1E02C9130E011968C91119780
:107F100090E0982F8827822B932B1296FA010C0160
:107F200087BEE89511244E5F5F4FF1E0A038BF0790
:107F300051F7F601A7BEE89507B600FCFDCF97BE46
:107F4000E89526C08437B1F42ED02DD0F82E2BD052
:107F50003CD0F601EF2C8F010F5F1F4F84911BD097
:107F6000EA94F801C1F70894C11CD11CFA94CF0C13
:107F7000D11C0EC0853739F428D08EE10CD085E9AC
:107F80000AD08FE07ACF813511F488E018D01DD067
:107F900080E101D065CF982F8091C00085FFFCCF94
:107FA0009093C60008958091C00087FFFCCF809118
:107FB000C00084FD01C0A8958091C6000895E0E648
:107FC000F0E098E1908380830895EDDF803219F02E
:107FD00088E0F5DFFFCF84E1DECF1F93182FE3DFCA
:107FE0001150E9F7F2DF1F91089580E0E8DFEE27F6
:047FF000FF270994CA
:027FFE00040479
:00000001FF
