:020000040000FA
:100000000C945D000C9485000C9485000C94850084
:100010000C9485000C9485000C9485000C9485004C
:100020000C9485000C9485000C9485000C9485003C
:100030000C9485000C9485000C9485000C9485002C
:100040000C94FC010C9485000C9485000C948500A4
:100050000C9485000C9485000C9485000C9485000C
:100060000C9485000C9485000000000024002700FB
:100070002A0000000000250028002B0004040404CE
:100080000404040402020202020203030303030342
:10009000010204081020408001020408102001021F
:1000A00004081020000000080002010000030407FB
:1000B0000000000000000000410311241FBECFEF2C
:1000C000D8E0DEBFCDBF11E0A0E0B1E0E6E6F8E0A9
:1000D00002C005900D92A831B107D9F721E0A8E13F
:1000E000B1E001C01D92A933B207E1F710E0CDE500
:1000F000D0E004C02197FE010E942B04CC35D1072B
:10010000C9F70E9446020C9431040C94000090E060
:10011000FC01EC55FF4F2491FC01E057FF4F349157
:10012000FC01E458FF4FE491EE23C9F0222339F09B
:10013000233001F1A8F4213019F1223029F1F0E047
:10014000EE0FFF1FEE58FF4FA591B4918FB7F894B3
:10015000EC91611126C030953E233C938FBF0895EA
:100160002730A9F02830C9F0243049F78091800069
:100170008F7D03C0809180008F7780938000DFCFD8
:1001800084B58F7784BDDBCF84B58F7DFBCF809125
:10019000B0008F778093B000D2CF8091B0008F7D78
:1001A000F9CF3E2BDACFCF93DF9390E0FC01E057FD
:1001B000FF4F249184589F4FFC0184918823D1F0F4
:1001C00090E0880F991FFC01E859FF4FA591B49169
:1001D000FC01EE58FF4FC591D49161110EC09FB73D
:1001E000F8948C91E22FE0958E238C932881E22362
:1001F000E8839FBFDF91CF9108958FB7F894EC917A
:10020000E22BEC938FBFF6CF3FB7F89480911D019E
:1002100090911E01A0911F01B091200126B5A89BCD
:1002200005C02F3F19F00196A11DB11D3FBFBA2F88
:10023000A92F982F8827BC01CD01620F711D811D48
:10024000911D42E0660F771F881F991F4A95D1F7CD
:100250000895AF92BF92CF92DF92EF92FF920F93E9
:100260001F93CF93DF936C017B018B01040F151F4C
:10027000EB015E01AE18BF08C017D10759F06991B4
:10028000D601ED91FC910190F081E02DC601099518
:10029000892B79F7C501DF91CF911F910F91FF90C5
:1002A000EF90DF90CF90BF90AF900895089590E0C9
:1002B00080E00895CF93DF93EC0160E08E810E948F
:1002C000870061E08E810E94870060E08E810E943D
:1002D00087008BE891E00197F1F7DF91CF910895C6
:1002E000CF92DF92EF92FF920F931F93CF93DF9302
:1002F0006C017C0187E0E80EF11CD0E0C0E0062F25
:1003000010E0B8010C2E02C0759567950A94E2F7CB
:100310006170F70181917F010E9487002196C430AE
:10032000D10579F7C601DF91CF911F910F91FF9011
:10033000EF90DF90CF900C945A01CF92DF92EF9222
:10034000FF920F931F93CF93DF93EC01F62E642F50
:100350008C810E9487008D818F3F19F060E00E94A0
:1003600087000F2D10E08F8584FF25C06E0187E088
:10037000C80ED11CF12CE12CB8010E2C02C07595D1
:1003800067950A94E2F76170F60181916F010E940E
:100390008700FFEFEF1AFF0A88E0E816F10461F723
:1003A000CE01DF91CF911F910F91FF90EF90DF90E1
:1003B000CF900C945A01B80184E0759567958A95A1
:1003C000E1F7CE010E9470016F2DCE01DF91CF9138
:1003D0001F910F91FF90EF90DF90CF900C947001E0
:1003E00040E0682F81E291E00C949D0141E00E9481
:1003F0009D0181E090E008951F920F920FB60F9239
:1004000011242F933F938F939F93AF93BF9380912A
:10041000190190911A01A0911B01B0911C0130911A
:10042000180123E0230F2D3758F50196A11DB11DAA
:10043000209318018093190190931A01A0931B0136
:10044000B0931C0180911D0190911E01A0911F018C
:10045000B09120010196A11DB11D80931D019093C3
:100460001E01A0931F01B0932001BF91AF919F91F6
:100470008F913F912F910F900FBE0F901F90189565
:1004800026E8230F0296A11DB11DD2CFCF93DF9393
:10049000CDB7DEB7A1970FB6F894DEBF0FBECDBFC4
:1004A000789484B5826084BD84B5816084BD85B54F
:1004B000826085BD85B5816085BD80916E0081605B
:1004C00080936E0010928100809181008260809301
:1004D0008100809181008160809381008091800003
:1004E0008160809380008091B10084608093B1002E
:1004F0008091B00081608093B00080917A00846028
:1005000080937A0080917A00826080937A00809153
:100510007A00816080937A0080917A00806880936D
:100520007A001092C10060E08EE00E94D3000BE3DD
:100530001FE190E4392E2AE0422E512C612C712CBF
:1005400081E00E94F001C8010197F1F7E1E080919C
:1005500034018111E0E0E195F0E0EF5DFE4F848928
:1005600080680E94F00130927C0080917A00806463
:1005700080937A0080917A0086FDFCCFC09078004D
:10058000D09079004AE050E06CE071E081E291E0C7
:100590000E9429010D2C000CEE08FF08F7FE5BC03D
:1005A00041E06DE281E291E00E949D012227332724
:1005B000A9012C193D094E095F0919A2CE018196A6
:1005C0007C01CA01B901A30192010E940904605D86
:1005D000F70162937F01211531054105510589F726
:1005E000E114F10461F001900020E9F73197AF01C7
:1005F0004E195F09B70181E291E00E9429010E9432
:1006000004014B015C0184E6C82ED12CE12CF12CB5
:100610000E940401681979098A099B09683E7340A0
:1006200081059105A8F3F1E0CF1AD108E108F1089E
:1006300028EE820E23E0921EA11CB11CC114D1042D
:10064000E104F10429F780E090E0892B09F478CFE8
:100650000E94000075CFA701960119A2CE018196D4
:100660007C01CA01B901A30192010E940904605DE5
:10067000F70162937F01211531054105510589F785
:10068000AFCFCF93DF93109224011092230184E027
:1006900091E090932201809321018BE080932501CA
:1006A0008FEF8093260189E08093270185E0809376
:1006B000280184E08093290183E080932A0182E06D
:1006C00080932B0110922C0110922D0110922E017B
:1006D00010922F011092300181E08093340110922A
:1006E000350180E48093360180E18093370180E515
:1006F0008093380161E08BE00E94D3008091260155
:100700008F3F19F061E00E94D30061E080912701E2
:100710000E94D300C1E2D1E09E012152314080917C
:10072000300184FD0BC084E090E021962817390742
:1007300044F461E08E810E94D300EECF88E090E027
:10074000F4CF8BE39DE00197F1F760E08091250104
:100750000E94870060E0809127010E9487008091BD
:1007600026018F3F19F060E00E94870080913001E0
:1007700084FD39C063E081E291E00E947001CBE426
:10078000D6E4CE010197F1F763E081E291E00E94A7
:1007900070012197F1F763E081E291E00E9470011E
:1007A00083E592E00197F1F762E081E291E00E9437
:1007B00070018091300180620E94F00184E080939A
:1007C00031018CE00E94F00181E00E94F0018BE396
:1007D0009FE10197F1F782E08093320186E0DF919B
:1007E000CF910C94F00180620E94F0018BE496E4BA
:1007F0000197F1F78091300180620E94F00183E55A
:1008000092E00197F1F78091300180620E94F0013F
:10081000D0CFA1E21A2EAA1BBB1BFD010DC0AA1F3F
:10082000BB1FEE1FFF1FA217B307E407F50720F059
:10083000A21BB30BE40BF50B661F771F881F991FD4
:100840001A9469F760957095809590959B01AC011D
:10085000BD01CF010895EE0FFF1F0590F491E02D2B
:100860000994F894FFCF00000000F6012901570118
:0E0870005601456E7472616461203D200000E7
:107E0000112484B714BE81FFF0D085E080938100F7
:107E100082E08093C00088E18093C10086E0809377
:107E2000C20080E18093C4008EE0C9D0259A86E02C
:107E300020E33CEF91E0309385002093840096BBD3
:107E4000B09BFECF1D9AA8958150A9F7CC24DD24C4
:107E500088248394B5E0AB2EA1E19A2EF3E0BF2EE7
:107E6000A2D0813461F49FD0082FAFD0023811F036
:107E7000013811F484E001C083E08DD089C08234E0
:107E800011F484E103C0853419F485E0A6D080C0E4
:107E9000853579F488D0E82EFF2485D0082F10E0AE
:107EA000102F00270E291F29000F111F8ED06801E7
:107EB0006FC0863521F484E090D080E0DECF843638
:107EC00009F040C070D06FD0082F6DD080E0C81688
:107ED00080E7D80618F4F601B7BEE895C0E0D1E017
:107EE00062D089930C17E1F7F0E0CF16F0E7DF06D8
:107EF00018F0F601B7BEE89568D007B600FCFDCFD4
:107F0000A601A0E0B1E02C9130E011968C91119780
:107F100090E0982F8827822B932B1296FA010C0160
:107F200087BEE89511244E5F5F4FF1E0A038BF0790
:107F300051F7F601A7BEE89507B600FCFDCF97BE46
:107F4000E89526C08437B1F42ED02DD0F82E2BD052
:107F50003CD0F601EF2C8F010F5F1F4F84911BD097
:107F6000EA94F801C1F70894C11CD11CFA94CF0C13
:107F7000D11C0EC0853739F428D08EE10CD085E9AC
:107F80000AD08FE07ACF813511F488E018D01DD067
:107F900080E101D065CF982F8091C00085FFFCCF94
:107FA0009093C60008958091C00087FFFCCF809118
:107FB000C00084FD01C0A8958091C6000895E0E648
:107FC000F0E098E1908380830895EDDF803219F02E
:107FD00088E0F5DFFFCF84E1DECF1F93182FE3DFCA
:107FE0001150E9F7F2DF1F91089580E0E8DFEE27F6
:047FF000FF270994CA
:027FFE00040479
:00000001FF
