:100000000C945D000C9485000C9485000C94850084
:100010000C9485000C9485000C9485000C9485004C
:100020000C9485000C9485000C9485000C9485003C
:100030000C9485000C9485000C9485000C9485002C
:100040000C944D010C9485000C9485000C94850053
:100050000C9485000C9485000C9485000C9485000C
:100060000C9485000C94850000000008000201003B
:100070000003040700000000000000000000000072
:10008000250028002B0000000000240027002A0083
:10009000040404040404040402020202020203032E
:1000A0000303030301020408102040800102040836
:1000B0001020010204081020290211241FBECFEFD6
:1000C000D8E0DEBFCDBF21E0A6E0B1E001C01D92C7
:1000D000AE31B207E1F711E0A0E0B1E0E0E2F7E015
:1000E00002C005900D92A630B107D9F710E0CDE51A
:1000F000D0E004C02197FE010E946302CC35D107F5
:10010000C9F70E94B6010C948E030C94000090E095
:10011000FC01E859FF4F2491FC01EC55FF4F34914D
:10012000FC01E057FF4FE491EE23C9F0222339F0A0
:10013000233001F1A8F4213019F1223029F1F0E047
:10014000EE0FFF1FE458FF4FA591B4918FB7F894BD
:10015000EC91611126C030953E233C938FBF0895EA
:100160002730A9F02830C9F0243049F78091800069
:100170008F7D03C0809180008F7780938000DFCFD8
:1001800084B58F7784BDDBCF84B58F7DFBCF809125
:10019000B0008F778093B000D2CF8091B0008F7D78
:1001A000F9CF3E2BDACF3FB7F89480910B019091B5
:1001B0000C01A0910D01B0910E0126B5A89B05C0C0
:1001C0002F3F19F00196A11DB11D3FBFBA2FA92FD6
:1001D000982F8827BC01CD01620F711D811D911DD3
:1001E00042E0660F771F881F991F4A95D1F708953F
:1001F0008F929F92AF92BF92CF92DF92EF92FF9237
:100200006B017C010E94D3004B015C01C114D1043D
:10021000E104F104B9F00E94D300681979098A0950
:100220009B09683E73408105910580F321E0C21A65
:10023000D108E108F10888EE880E83E0981EA11C21
:10024000B11CE4CFFF90EF90DF90CF90BF90AF90C4
:100250009F908F900895CF93DF93EC0160E08881A9
:100260000E94870060E089810E94870060E08A81A7
:10027000DF91CF910C948700CF93DF93EC0161E085
:1002800088810E94870061E089810E94870061E087
:100290008A81DF91CF910C9487001F920F920FB645
:1002A0000F9211242F933F938F939F93AF93BF93FC
:1002B0008091070190910801A0910901B0910A0174
:1002C0003091060123E0230F2D3758F50196A11D2B
:1002D000B11D209306018093070190930801A0931C
:1002E0000901B0930A0180910B0190910C01A0913A
:1002F0000D01B0910E010196A11DB11D80930B015E
:1003000090930C01A0930D01B0930E01BF91AF919A
:100310009F918F913F912F910F900FBE0F901F9043
:10032000189526E8230F0296A11DB11DD2CF90E0AB
:10033000FC01EC55FF4F249180579F4FFC018491A5
:10034000882399F090E0880F991FFC01EA57FF4F2E
:10035000A591B491FC01E458FF4F859194918FB71A
:10036000F894EC91E22BEC938FBF0895789484B5C8
:10037000826084BD84B5816084BD85B5826085BDA1
:1003800085B5816085BD80916E00816080936E002F
:100390001092810080918100826080938100809121
:1003A00081008160809381008091800081608093D2
:1003B00080008091B10084608093B1008091B00092
:1003C00081608093B00080917A00846080937A008D
:1003D00080917A00826080937A0080917A008160B7
:1003E00080937A0080917A00806880937A001092DE
:1003F000C10000E010E081E191E00E943C0168EE64
:1004000073E080E090E00E94F80081E191E00E94BA
:100410002B0168EE73E080E090E00E94F800C0914C
:100420000F01D0911001CE010E943C0160E070E00C
:10043000CB010E94F800CE010E942B0160E070E029
:10044000CB010E94F80001151105A9F20E940000DD
:10045000D2CFCF93DF93E1E1F1E0148213821682D1
:100460001582108617828CE080838BE081838AE07E
:1004700082838CE00E9497018BE00E9497018AE0C2
:100480000E94970189E090E00E946902EC011C82C1
:100490001B821E821D8218861F8282E0888383E071
:1004A000898384E08A8382E00E94970183E00E942E
:1004B000970184E00E949701D0931001C0930F012F
:1004C000DF91CF910895EE0FFF1F0590F491E02D7D
:1004D00009940F931F93CF93DF938230910510F40B
:1004E00082E090E0E0911C01F0911D0130E020E0FD
:1004F000B0E0A0E0309799F42115310509F44AC025
:10050000281B390B24303105D8F58A819B81611570
:10051000710589F1FB0193838283FE0111C0408143
:1005200051810281138148175907E0F04817590794
:1005300099F4109761F012960C93129713961C93EE
:100540003296CF01DF91CF911F910F9108950093C3
:100550001C0110931D01F4CF2115310551F04217F4
:10056000530738F0A901DB019A01BD01DF01F80151
:10057000C1CFEF01F9CF90931D0180931C01CDCF26
:10058000FE01E20FF31F81939193225031093983C9
:100590002883D7CF20911A0130911B01232B41F4DE
:1005A000209102013091030130931B0120931A0125
:1005B00020910001309101012115310541F42DB741
:1005C0003EB74091040150910501241B350BE09189
:1005D0001A01F0911B01E217F307A0F42E1B3F0B49
:1005E0002817390778F0AC014E5F5F4F24173507A5
:1005F00048F04E0F5F1F50931B0140931A018193E7
:1006000091939FCFF0E0E0E09CCFCF93DF930097F2
:10061000E9F0FC01329713821282A0911C01B09183
:100620001D01ED0130E020E01097A1F4208131811F
:10063000820F931F20911A0130911B01281739074F
:1006400009F061C0F0931B01E0931A01DF91CF9193
:100650000895EA01CE17DF07E8F54A815B819E0124
:1006600041155105B1F7E901FB83EA83499159919D
:10067000C40FD51FEC17FD0761F4808191810296AC
:10068000840F951FE90199838883828193819B83DD
:100690008A83F0E0E0E012968D919C911397009789
:1006A000B9F52D913C911197CD010296820F931FC0
:1006B00020911A0130911B012817390739F630971C
:1006C00051F510921D0110921C01B0931B01A093D3
:1006D0001A01BCCFD383C28340815181840F951FFF
:1006E000C817D90761F44E5F5F4F88819981480F21
:1006F000591F518340838A819B8193838283211573
:10070000310509F0B0CFF0931D01E0931C019ECF9D
:10071000FD01DC01C0CF13821282D7CFF894FFCF46
:0607200000001E01800034
:00000001FF
