:020000040000FA
:100000000C945D000C947A000C947A000C947A00A5
:100010000C947A000C947A000C947A000C94E5000D
:100020000C947A000C947A000C947A000C947A0068
:100030000C947A000C947A000C947A000C947A0058
:100040000C949B000C947A000C947A000C947A0027
:100050000C947A000C947A000C947A000C947A0038
:100060000C947A000C947A00000000080002010051
:100070000003040700000000000000000200000070
:1000800000250028002B0000000000240027002A83
:100090000004040404040404040202020202020331
:1000A000030303030301020408102040800102043B
:1000B0000810200102040810200011241FBECFEFF9
:1000C000D8E0DEBFCDBF11E0A0E0B1E0E6E9F5E0A9
:1000D00002C005900D92A230B107D9F721E0A2E04D
:1000E000B1E001C01D92AC31B207E1F70E94A80156
:1000F0000C94C9020C94000090E0FC01EB55FF4FFA
:1001000024918F569F4FFC018491882399F090E0B1
:10011000880F991FFC01E957FF4FA591B491FC018D
:10012000E358FF4F859194918FB7F894EC91E22BAF
:10013000EC938FBF08951F920F920FB60F92112468
:100140002F933F938F939F93AF93BF938091180109
:1001500090911901A0911A01B0911B0130911701E2
:1001600023E0230F2D3758F50196A11DB11D2093D3
:1001700017018093180190931901A0931A01B0936D
:100180001B018091130190911401A0911501B09170
:1001900016010196A11DB11D8093130190931401C6
:1001A000A0931501B0931601BF91AF919F918F91CC
:1001B0003F912F910F900FBE0F901F90189526E83A
:1001C000230F0296A11DB11DD2CF1F920F920FB621
:1001D0000F9211242F933F938F939F93AF93BF93CD
:1001E000EF93FF938091070190910801A09109017D
:1001F000B0910A01892B8A2B8B2BB1F190910201CE
:10020000E0910301F091040180818927808380912E
:10021000070190910801A0910901B0910A011816F7
:1002200019061A061B069CF480910701909108019B
:10023000A0910901B0910A010197A109B109809328
:10024000070190930801A0930901B0930A01FF915F
:10025000EF91BF91AF919F918F913F912F910F900F
:100260000FBE0F901F90189580910001ECE7F0E011
:10027000E4919FEF90930001E13009F431C068F1FF
:10028000E23009F433C090E0FC01E859FF4F2491BB
:10029000FC01EB55FF4F3491FC01EF56FF4FE49109
:1002A000EE23A9F2222351F0233009F43AC078F565
:1002B000213009F43CC0223009F43DC0F0E0EE0FDB
:1002C000FF1FE358FF4FA591B4918FB7F894EC91BD
:1002D00030953E233C938FBFBACF10926E00D3CFA0
:1002E00090916F009D7F90936F00CDCF90917000A3
:1002F0009D7F9093700091E09093B0009091B10039
:10030000987F94609093B1001092B300BCCF2730D7
:10031000A9F02830C9F0243089F6809180008F7DC3
:1003200003C0809180008F7780938000C7CF84B511
:100330008F7784BDC3CF84B58F7DFBCF8091B00014
:100340008F778093B000BACF8091B0008F7DF9CFC6
:10035000789484B5826084BD84B5816084BD85B5A0
:10036000826085BD85B5816085BD80916E008160AC
:1003700080936E0010928100809181008260809352
:100380008100809181008160809381008091800054
:100390008160809380008091B10084608093B1007F
:1003A0008091B00081608093B00080917A00846079
:1003B00080937A0080917A00826080937A008091A5
:1003C0007A00816080937A0080917A0080688093BF
:1003D0007A001092C10088E00E947C003CE7C32EA6
:1003E00030E0D32E09E910E04DEAE42E40E0F42E8F
:1003F0005601D8E050E1452E57E2552E612C712C64
:100400006FE3862E6FE1962E80910001883039F4DB
:10041000F501C491C7FDFCCFD093000148C08F3FC8
:10042000A9F7F601C491CF3F99F3C13009F45FC039
:1004300028F1C23079F7D09300011092B0001092E9
:10044000B1008091B00082608093B0008091B100D3
:1004500081608093B100F8018491E82FF0E0EE0F05
:10046000FF1FE358FF4F859194919093040180936F
:100470000301F70184918093020119C0D093000118
:1004800014BC15BC84B5826084BD85B5816085BD12
:10049000F8018491E82FF0E0EE0FFF1FE358FF4FC3
:1004A00085919491F701849180930601C0E088E0E2
:1004B0000E947C00CC2309F439C0C23009F04AC044
:1004C0008091B100887F83608093B10089EF809331
:1004D000B3004092070150920801609209017092A6
:1004E0000A01809170008260809370008DCFD0935C
:1004F000000110928000109281008091810088603C
:100500008093810080918100816080938100F80157
:100510008491E82FF0E0EE0FFF1FE358FF4F859125
:100520009491F701849180930501C1CF85B5887FAF
:10053000836085BD8CE787BD40920F01509210010A
:10054000609211017092120180916E00826080931E
:100550006E005ACFC130C1F480918100887F8160E4
:1005600080938100909289008092880040920B01D4
:1005700050920C0160920D0170920E0180916F00FB
:10058000826080936F0040CFC23009F03DCF8FE38F
:080590009ECFF894FFCFFF009D
:107E0000112484B714BE81FFF0D085E080938100F7
:107E100082E08093C00088E18093C10086E0809377
:107E2000C20080E18093C4008EE0C9D0259A86E02C
:107E300020E33CEF91E0309385002093840096BBD3
:107E4000B09BFECF1D9AA8958150A9F7CC24DD24C4
:107E500088248394B5E0AB2EA1E19A2EF3E0BF2EE7
:107E6000A2D0813461F49FD0082FAFD0023811F036
:107E7000013811F484E001C083E08DD089C08234E0
:107E800011F484E103C0853419F485E0A6D080C0E4
:107E9000853579F488D0E82EFF2485D0082F10E0AE
:107EA000102F00270E291F29000F111F8ED06801E7
:107EB0006FC0863521F484E090D080E0DECF843638
:107EC00009F040C070D06FD0082F6DD080E0C81688
:107ED00080E7D80618F4F601B7BEE895C0E0D1E017
:107EE00062D089930C17E1F7F0E0CF16F0E7DF06D8
:107EF00018F0F601B7BEE89568D007B600FCFDCFD4
:107F0000A601A0E0B1E02C9130E011968C91119780
:107F100090E0982F8827822B932B1296FA010C0160
:107F200087BEE89511244E5F5F4FF1E0A038BF0790
:107F300051F7F601A7BEE89507B600FCFDCF97BE46
:107F4000E89526C08437B1F42ED02DD0F82E2BD052
:107F50003CD0F601EF2C8F010F5F1F4F84911BD097
:107F6000EA94F801C1F70894C11CD11CFA94CF0C13
:107F7000D11C0EC0853739F428D08EE10CD085E9AC
:107F80000AD08FE07ACF813511F488E018D01DD067
:107F900080E101D065CF982F8091C00085FFFCCF94
:107FA0009093C60008958091C00087FFFCCF809118
:107FB000C00084FD01C0A8958091C6000895E0E648
:107FC000F0E098E1908380830895EDDF803219F02E
:107FD00088E0F5DFFFCF84E1DECF1F93182FE3DFCA
:107FE0001150E9F7F2DF1F91089580E0E8DFEE27F6
:047FF000FF270994CA
:027FFE00040479
:00000001FF
