:100000000C945D000C9485000C9485000C94850084
:100010000C9485000C9485000C9485000C9485004C
:100020000C9485000C9485000C9485000C9485003C
:100030000C9485000C9485000C9485000C9485002C
:100040000C9411020C9485000C94DF010C94B901FE
:100050000C9485000C9485000C9485000C9485000C
:100060000C9485000C9485000000000024002700FB
:100070002A0000000000250028002B0004040404CE
:100080000404040402020202020203030303030342
:10009000010204081020408001020408102001021F
:1000A00004081020000000080002010000030407FB
:1000B0000000000000000000FC0311241FBECFEF71
:1000C000D8E0DEBFCDBF11E0A0E0B1E0E6EFF8E0A0
:1000D00002C005900D92A831B107D9F721E0A8E13F
:1000E000B1E001C01D92A03CB207E1F710E0CDE500
:1000F000D0E004C02197FE010E947304CC35D107E3
:10010000C9F70E945B020C9479040C940000AF9232
:10011000BF92CF92DF92EF92FF920F931F93CF93F4
:10012000DF936C017B018B01040F151FEB015E0156
:10013000AE18BF08C017D10759F06991D601ED91EB
:10014000FC910190F081E02DC6010995892B79F78A
:10015000C501DF91CF911F910F91FF90EF90DF903C
:10016000CF90BF90AF900895FC01538D448D252F03
:1001700030E0842F90E0821B930B541710F0CF9641
:10018000089501970895FC01918D828D981761F073
:10019000A28DAE0FBF2FB11D5D968C91928D9F5F8A
:1001A0009F73928F90E008958FEF9FEF0895FC0169
:1001B000918D828D981731F0828DE80FF11D858D1C
:1001C00090E008958FEF9FEF0895FC01918D228DAF
:1001D000892F90E0805C9F4F821B91098F73992734
:1001E000089581E291E00E94E50021E0892B09F465
:1001F00020E0822F089580E090E0892B29F00E9472
:10020000F10081110C9400000895FC01A48DA80F49
:10021000B92FB11DA35ABF4F2C91848D90E0019648
:100220008F739927848FA689B7892C93A089B18968
:100230008C91837080648C93938D848D981306C009
:100240000288F389E02D80818F7D80830895EF926D
:10025000FF920F931F93CF93DF93EC0181E0888F80
:100260009B8D8C8D98131AC0E889F989808185FF50
:1002700015C09FB7F894EE89FF896083E889F989F2
:1002800080818370806480839FBF81E090E0DF91F4
:10029000CF911F910F91FF90EF900895F62E0B8D47
:1002A00010E00F5F1F4F0F731127E02E8C8D8E1102
:1002B0000CC00FB607FCFACFE889F989808185FF69
:1002C000F5CFCE010E940501F1CFEB8DEC0FFD2F94
:1002D000F11DE35AFF4FF0829FB7F8940B8FEA8924
:1002E000FB8980818062CFCFCF93DF93EC01888D33
:1002F0008823B9F0AA89BB89E889F9898C9185FDA1
:1003000003C0808186FD0DC00FB607FCF7CF8C912E
:1003100085FFF2CF808185FFEDCFCE010E940501E0
:10032000E9CFDF91CF9108953FB7F89480911D01F7
:1003300090911E01A0911F01B091200126B5A89BAC
:1003400005C02F3F19F00196A11DB11D3FBFBA2F67
:10035000A92F982F8827BC01CD01620F711D811D27
:10036000911D42E0660F771F881F991F4A95D1F7AC
:1003700008951F920F920FB60F9211242F933F935F
:100380004F935F936F937F938F939F93AF93BF939D
:10039000EF93FF9381E291E00E940501FF91EF91BD
:1003A000BF91AF919F918F917F916F915F914F918D
:1003B0003F912F910F900FBE0F901F9018951F9295
:1003C0000F920FB60F9211242F938F939F93EF9359
:1003D000FF93E0913101F09132018081E09137018A
:1003E000F091380182FD1BC0908180913A018F5FAE
:1003F0008F7320913B01821741F0E0913A01F0E0C8
:10040000EF5DFE4F958F80933A01FF91EF919F91A1
:100410008F912F910F900FBE0F901F901895808194
:10042000F4CF1F920F920FB60F9211242F933F9388
:100430008F939F93AF93BF938091190190911A016D
:10044000A0911B01B0911C013091180123E0230FF2
:100450002D3758F50196A11DB11D209318018093E9
:10046000190190931A01A0931B01B0931C01809174
:100470001D0190911E01A0911F01B09120010196D4
:10048000A11DB11D80931D0190931E01A0931F011A
:10049000B0932001BF91AF919F918F913F912F9188
:1004A0000F900FBE0F901F90189526E8230F02960D
:1004B000A11DB11DD2CFCF93DF93CDB7DEB7A197EA
:1004C0000FB6F894DEBF0FBECDBF789484B58260BE
:1004D00084BD84B5816084BD85B5826085BD85B5E8
:1004E000816085BD80916E00816080936E00109266
:1004F00081008091810082608093810080918100E1
:100500008160809381008091800081608093800071
:100510008091B10084608093B1008091B0008160CF
:100520008093B00080917A00846080937A008091FB
:100530007A00826080937A0080917A008160809353
:100540007A0080917A00806880937A001092C100CE
:10055000EDE9F0E02491E9E8F0E08491882399F056
:1005600090E0880F991FFC01E859FF4FA591B491C5
:10057000FC01EE58FF4F859194918FB7F8949C91B0
:10058000292B2C938FBFE0913101F091320182E051
:100590008083E0912D01F0912E011082E0912F01D6
:1005A000F09130018FEC808310923901E091350198
:1005B000F091360186E08083E0913301F0913401BF
:1005C000808180618083E0913301F09134018081EA
:1005D00088608083E0913301F091340180818068EC
:1005E0008083E0913301F091340180818F7D80839D
:1005F0002AE0422E512C612C712C34E6232E312C12
:1006000000E010E0E1EBF0E09491EDE9F0E084919E
:10061000E9E8F0E03491332301F1209100019923BE
:1006200059F0933009F4B3C008F0A6C0913009F432
:10063000B4C0923009F4B5C0E32FF0E0EE0FFF1F15
:10064000EE58FF4FA591B4919FB7F8942111B6C011
:100650002C91809582238C939FBFC090BE01D09037
:10066000BF010D2C000CEE08FF08F7FEAAC06DE2DA
:1006700081E291E00E94270122273327A9012C194A
:100680003D094E095F0919A2CE0181967C01CA017C
:10069000B901A30192010E943D04605DF7016293DC
:1006A0007F01211531054105510589F7E114F10458
:1006B00061F001900020E9F73197AF014E195F0911
:1006C000B70181E291E00E94870042E050E064E1DE
:1006D00071E081E291E00E9487002091BE0130919B
:1006E000BF012F5F3F4FC901B1010E942904892B2F
:1006F00009F47DC03093BF012093BE0181E090E0FA
:100700002091000130910101232B11F090E080E055
:1007100090930101809300010E9494014B015C01C0
:1007200084E6C82ED12CE12CF12C0E94940168198A
:1007300079098A099B09683E734081059105A8F3F0
:10074000F1E0CF1AD108E108F10828EE820E23E08B
:10075000921EA11CB11CC114D104E104F10429F7BB
:100760000115110509F44ECF0E94F100882309F408
:1007700049CF0E94000046CF9730B1F09830D1F0B9
:10078000943009F059CF909180009F7D03C09091E3
:1007900080009F77909380004FCF94B59F7794BD52
:1007A0004BCF94B59F7DFBCF9091B0009F779093F6
:1007B000B00042CF9091B0009F7DF9CF2C91822B59
:1007C0004ACFA701960119A2CE0181967C01CA01E8
:1007D000B901A30192010E943D04605DF70162939B
:1007E0007F01211531054105510589F75FCF109231
:1007F000BF011092BE0182CFE1E2F1E013821282CA
:1008000088EE93E0A0E0B0E084839583A683B7836D
:1008100086E091E09183808385EC90E095878487E2
:1008200084EC90E09787868780EC90E0918B808BBA
:1008300081EC90E0938B828B82EC90E0958B848BA3
:1008400086EC90E0978B868B118E128E138E148E11
:10085000089597FB072E16F4009407D077FD09D072
:100860000E945F0407FC05D03EF4909581959F4F50
:100870000895709561957F4F0895A1E21A2EAA1BE5
:10088000BB1BFD010DC0AA1FBB1FEE1FFF1FA21740
:10089000B307E407F50720F0A21BB30BE40BF50B3D
:1008A000661F771F881F991F1A9469F760957095C6
:1008B000809590959B01AC01BD01CF010895AA1BC5
:1008C000BB1B51E107C0AA1FBB1FA617B70710F03B
:1008D000A61BB70B881F991F5A95A9F7809590956D
:1008E000BC01CD010895EE0FFF1F0590F491E02D9E
:0608F0000994F894FFCF0B
:1008F60001000000000027018700B4007401E50034
:08090600C300D7000D0A000038
:00000001FF
