:020000040000FA
:100000000C945D000C9485000C9485000C94850084
:100010000C9485000C9485000C9485000C9485004C
:100020000C9485000C9485000C9485000C9485003C
:100030000C9485000C9485000C9485000C9485002C
:100040000C94B1020C9485000C9485000C948500EE
:100050000C9485000C9485000C9485000C9485000C
:100060000C9485000C94850000000008000201003B
:100070000003040700000000000000000000000072
:10008000250028002B0000000000240027002A0083
:10009000040404040404040402020202020203032E
:1000A0000303030301020408102040800102040836
:1000B0001020010204081020BA0311241FBECFEF44
:1000C000D8E0DEBFCDBF21E0AEE1B1E001C01D92BE
:1000D000AD32B207E1F711E0A0E0B1E0ECE2FCE004
:1000E00002C005900D92AE31B107D9F710E0CDE511
:1000F000D0E004C02197FE010E941C04CC35D1073A
:10010000C9F70E94FB020C9414060C94000090E0C6
:10011000FC01EC55FF4F249180579F4FFC018491C7
:10012000882399F090E0880F991FFC01EA57FF4F50
:10013000A591B491FC01E458FF4F859194918FB73C
:10014000F894EC91E22BEC938FBF089590E0FC01C2
:10015000E859FF4F2491FC01EC55FF4F3491FC010D
:10016000E057FF4FE491EE23C9F0222339F023300A
:1001700001F1A8F4213019F1223029F1F0E0EE0F5D
:10018000FF1FE458FF4FA591B4918FB7F894EC91FD
:10019000611126C030953E233C938FBF08952730D0
:1001A000A9F02830C9F0243049F7809180008F7D74
:1001B00003C0809180008F7780938000DFCF84B56B
:1001C0008F7784BDDBCF84B58F7DFBCF8091B0006E
:1001D0008F778093B000D2CF8091B0008F7DF9CF20
:1001E0003E2BDACF3FB7F8948091250190912601FC
:1001F000A0912701B091280126B5A89B05C02F3FEB
:1002000019F00196A11DB11D3FBFBA2FA92F982F3C
:100210008827BC01CD01620F711D811D911D42E037
:10022000660F771F881F991F4A95D1F708958F92FF
:100230009F92AF92BF92CF92DF92EF92FF924B01CB
:100240005C010E94F2006B017C010E94F2006C19BB
:100250007D098E099F09683E734081059105A8F3C9
:1002600021E0821A9108A108B10888EEC80E83E047
:10027000D81EE11CF11C81149104A104B10429F7DA
:10028000FF90EF90DF90CF90BF90AF909F908F90B6
:100290000895AF92BF92CF92DF92EF92FF920F93A9
:1002A0001F93CF93DF936C017B018B01040F151F0C
:1002B000EB015E01AE18BF08C017D10759F0699174
:1002C000D601ED91FC910190F081E02DC6010995D8
:1002D000892B79F7C501DF91CF911F910F91FF9085
:1002E000EF90DF90CF90BF90AF900895089590E089
:1002F00080E00895CF93DF93EC0160E08E810E944F
:10030000A60061E08E810E94A60060E08E810E94BE
:10031000A6008BE891E00197F1F7DF91CF91089566
:10032000CF92DF92EF92FF920F931F93CF93DF93C1
:100330006C017C0187E0E80EF11CD0E0C0E0062FE4
:1003400010E0B8010C2E02C0759567950A94E2F78B
:100350006170F70181917F010E94A6002196C4304F
:10036000D10579F7C601DF91CF911F910F91FF90D1
:10037000EF90DF90CF900C947A01CF92DF92EF92C2
:10038000FF920F931F93CF93DF93EC01F62E642F10
:100390008C810E94A6008D818F3F19F060E00E9441
:1003A000A6000F2D10E08F8584FF25C06E0187E029
:1003B000C80ED11CF12CE12CB8010E2C02C0759591
:1003C00067950A94E2F76170F60181916F010E94CE
:1003D000A600FFEFEF1AFF0A88E0E816F10461F7C4
:1003E000CE01DF91CF911F910F91FF90EF90DF90A1
:1003F000CF900C947A01B80184E0759567958A9541
:10040000E1F7CE010E9490016F2DCE01DF91CF91D7
:100410001F910F91FF90EF90DF90CF900C9490017F
:1004200041E00E94BD0181E090E0089540E00C941D
:10043000BD010F931F93CF93DF93EC01623019F44A
:100440008F8588608F876B8B1C8A80E48D8B80E121
:100450008E8B80E58F8B8C810E9487008D818F3FF2
:1004600011F00E9487008E810E9487008E01980102
:100470002C1B3D0B8F8584FD0CC084E090E00F5F4A
:100480001F4F2817390744F4F80186810E9487001E
:10049000EECF88E090E0F3CF8BE39DE00197F1F79A
:1004A00060E08C810E94A60060E08E810E94A60020
:1004B0008D818F3F19F060E00E94A6006F8564FD7A
:1004C00039C063E0CE010E9490010BE416E4C8013C
:1004D0000197F1F763E0CE010E949001C8010197F6
:1004E000F1F763E0CE010E94900183E592E001976D
:1004F000F1F762E0CE010E9490016F856062CE014B
:100500000E94160284E0888B6CE0CE010E941602E5
:1005100061E0CE010E9416028BE39FE10197F1F7A3
:1005200082E0898B66E0CE01DF91CF911F910F9120
:100530000C9416026062CE010E9416028BE496E4CF
:100540000197F1F76F856062CE010E94160283E584
:1005500092E00197F1F76F856062CE010E9416026A
:10056000CCCF1F920F920FB60F9211242F933F936F
:100570008F939F93AF93BF9380912101909122011C
:10058000A0912301B09124013091200123E0230F99
:100590002D3758F50196A11DB11D209320018093A0
:1005A000210190932201A0932301B0932401809113
:1005B000250190912601A0912701B0912801019673
:1005C000A11DB11D8093250190932601A0932701C1
:1005D000B0932801BF91AF919F918F913F912F913F
:1005E0000F900FBE0F901F90189526E8230F0296CC
:1005F000A11DB11DD2CF789484B5826084BD84B52D
:10060000816084BD85B5826085BD85B5816085BD0D
:1006100080916E00816080936E00109281008091C5
:10062000810082608093810080918100816080934D
:100630008100809180008160809380008091B10072
:1006400084608093B1008091B00081608093B0009D
:1006500080917A00846080937A0080917A00826031
:1006600080937A0080917A00816080937A008091F3
:100670007A00806880937A001092C10062E08091D5
:100680001E0190911F010E9419020BE31FE120E05F
:10069000E22E20E0F22EC0911E01D0911F0161E0F8
:1006A000CE010E941602C8010197F1F7E1E08B89A3
:1006B0008111E0E0E195EC0FFD2FF11D64896D5F84
:1006C0006068CE010E9416026BE070E090E080E06E
:1006D0000E944705EC0150E040E0009739F0188295
:1006E00062E171E00E940D064AE050E080911E0137
:1006F00090911F01DC01ED91FC910280F381E02DCE
:10070000BE01099560ED77E080E090E00E9417015E
:1007100093E0C92ED12CA0901E01B0901F0168E17A
:10072000C5010E9416026CE271E080E090E00E9438
:100730001701B1E0CB1AD10871F786E0C82ED12C91
:100740006CE1C5010E9416026CE271E080E090E06D
:100750000E94170181E0C81AD10891F7209719F07B
:10076000CE010E94BE04E114F10409F494CF0E946A
:10077000000091CFCF93DF9388E190E00E942204A4
:10078000EC011B821A828AE091E0998388838BE0D6
:100790008C838FEF8D8389E08E8385E08F8384E067
:1007A000888783E0898782E08A871B861C861D866E
:1007B0001E861F8661E0CE010E941902D0931F01A0
:1007C000C0931E01DF91CF9108952F923F924F92D7
:1007D0005F926F927F928F929F92AF92BF92CF92D1
:1007E000DF92EF92FF920F931F93CF93DF93CDB7DA
:1007F000DEB7CA1BDB0B0FB6F894DEBF0FBECDBF52
:1008000009942A88398848885F846E847D848C8422
:100810009B84AA84B984C884DF80EE80FD800C812B
:100820001B81AA81B981CE0FD11D0FB6F894DEBF0E
:100830000FBECDBFED010895EE0FFF1F0590F4919F
:10084000E02D09940F931F93CF93DF93823091058E
:1008500010F482E090E0E0912B01F0912C0130E067
:1008600020E0B0E0A0E0309799F42115310509F4BB
:100870004AC0281B390B24303105D8F58A819B8169
:100880006115710589F1FB0193838283FE0111C01B
:10089000408151810281138148175907E0F04817C0
:1008A000590799F4109761F012960C9312971396CA
:1008B0001C933296CF01DF91CF911F910F91089534
:1008C00000932B0110932C01F4CF2115310551F029
:1008D0004217530738F0A901DB019A01BD01DF017E
:1008E000F801C1CFEF01F9CF90932C0180932B0138
:1008F000CDCFFE01E20FF31F819391932250310976
:1009000039832883D7CF2091290130912A01232BC5
:1009100041F4209102013091030130932A01209388
:10092000290120910001309101012115310541F487
:100930002DB73EB74091040150910501241B350BA2
:10094000E0912901F0912A01E217F307A0F42E1B90
:100950003F0B2817390778F0AC014E5F5F4F241723
:10096000350748F04E0F5F1F50932A01409329012D
:10097000819391939FCFF0E0E0E09CCFCF93DF9302
:100980000097E9F0FC01329713821282A0912B01AB
:10099000B0912C01ED0130E020E01097A1F420810E
:1009A0003181820F931F2091290130912A0128174C
:1009B000390709F061C0F0932A01E0932901DF9122
:1009C000CF910895EA01CE17DF07E8F54A815B81F0
:1009D0009E0141155105B1F7E901FB83EA83499175
:1009E0005991C40FD51FEC17FD0761F480819181E7
:1009F0000296840F951FE9019983888382819381F0
:100A00009B838A83F0E0E0E012968D919C9113978E
:100A10000097B9F52D913C911197CD010296820F67
:100A2000931F2091290130912A012817390739F69F
:100A3000309751F510922C0110922B01B0932A019E
:100A4000A0932901BCCFD383C28340815181840FFD
:100A5000951FC817D90761F44E5F5F4F8881998150
:100A6000480F591F518340838A819B8193838283DE
:100A70002115310509F0B0CFF0932C01E0932B0143
:100A80009ECFFD01DC01C0CF13821282D7CFB0E030
:100A9000A0E0EDE4F5E00C94E7038C01009751F43D
:100AA000CB010E9422048C01C801CDB7DEB7E0E182
:100AB0000C940304FC01E60FF71F9C01225031093E
:100AC000E217F30708F49DC0D901CD91DC9111978D
:100AD000C617D70798F0C530D10530F3CE0104977B
:100AE0008617970708F3C61BD70B2297C193D1939C
:100AF0006D937C93CF010E94BE04D6CF5B01AC1AEC
:100B0000BD0A4C018C0E9D1EA0912B01B0912C01B1
:100B1000512C412CF12CE12C109731F580912901B9
:100B200090912A018815990509F05CC04616570670
:100B300008F058C08091000190910101009741F4A4
:100B40008DB79EB74091040150910501841B950B10
:100B5000E817F90708F055C0F0932A01E09329013E
:100B6000F90171836083A0CF8D919C9111971296AA
:100B70006C90129713967C901397A815B90559F5A8
:100B80006C0142E0C40ED11CCA14DB0420F1AC019C
:100B90004A195B09DA011296159780F06282738216
:100BA00051834083D9016D937C93E114F10471F07A
:100BB000D7011396FC93EE93129776CF22968C0F63
:100BC0009D1FF90191838083F301EFCFF0932C01F6
:100BD000E0932B0169CF4816590608F42C017D01DA
:100BE000D3019ACFCB010E9422047C01009749F0E7
:100BF000AE01B8010E940406C8010E94BE0487012C
:100C000053CF10E000E050CFFB01DC0102C00190A7
:100C10000D9241505040D8F70895FB01DC0101903E
:100C20000D920020E1F70895F894FFCF00002D0108
:100C300080000000000010024901770176014F6C2E
:0A0C400061206D756E646F210000E5
:107E0000112484B714BE81FFF0D085E080938100F7
:107E100082E08093C00088E18093C10086E0809377
:107E2000C20080E18093C4008EE0C9D0259A86E02C
:107E300020E33CEF91E0309385002093840096BBD3
:107E4000B09BFECF1D9AA8958150A9F7CC24DD24C4
:107E500088248394B5E0AB2EA1E19A2EF3E0BF2EE7
:107E6000A2D0813461F49FD0082FAFD0023811F036
:107E7000013811F484E001C083E08DD089C08234E0
:107E800011F484E103C0853419F485E0A6D080C0E4
:107E9000853579F488D0E82EFF2485D0082F10E0AE
:107EA000102F00270E291F29000F111F8ED06801E7
:107EB0006FC0863521F484E090D080E0DECF843638
:107EC00009F040C070D06FD0082F6DD080E0C81688
:107ED00080E7D80618F4F601B7BEE895C0E0D1E017
:107EE00062D089930C17E1F7F0E0CF16F0E7DF06D8
:107EF00018F0F601B7BEE89568D007B600FCFDCFD4
:107F0000A601A0E0B1E02C9130E011968C91119780
:107F100090E0982F8827822B932B1296FA010C0160
:107F200087BEE89511244E5F5F4FF1E0A038BF0790
:107F300051F7F601A7BEE89507B600FCFDCF97BE46
:107F4000E89526C08437B1F42ED02DD0F82E2BD052
:107F50003CD0F601EF2C8F010F5F1F4F84911BD097
:107F6000EA94F801C1F70894C11CD11CFA94CF0C13
:107F7000D11C0EC0853739F428D08EE10CD085E9AC
:107F80000AD08FE07ACF813511F488E018D01DD067
:107F900080E101D065CF982F8091C00085FFFCCF94
:107FA0009093C60008958091C00087FFFCCF809118
:107FB000C00084FD01C0A8958091C6000895E0E648
:107FC000F0E098E1908380830895EDDF803219F02E
:107FD00088E0F5DFFFCF84E1DECF1F93182FE3DFCA
:107FE0001150E9F7F2DF1F91089580E0E8DFEE27F6
:047FF000FF270994CA
:027FFE00040479
:00000001FF
