:100000000C945D000C947A000C947A000C947A00A5
:100010000C947A000C947A000C947A000C947A0078
:100020000C947A000C947A000C947A000C947A0068
:100030000C947A000C947A000C947A000C947A0058
:100040000C9423010C947A000C947A000C947A009E
:100050000C947A000C947A000C947A000C947A0038
:100060000C947A000C947A00000000080002010051
:100070000003040700000000000000000000000072
:10008000250028002B0000000000240027002A0083
:10009000040404040404040402020202020203032E
:1000A0000303030301020408102040800102040836
:1000B0001020010204081020F80111241FBECFEF08
:1000C000D8E0DEBFCDBF21E0A0E0B1E001C01D92CD
:1000D000A231B207E1F710E0CDE5D0E004C02197EE
:1000E000FE010E940F02CC35D107C9F70E948C0196
:1000F0000C9415020C94000090E0FC01E859FF4FAD
:100100002491FC01EC55FF4F3491FC01E057FF4F67
:10011000E491EE23C9F0222339F0233001F1A8F451
:10012000213019F1223029F1F0E0EE0FFF1FE458E1
:10013000FF4FA591B4918FB7F894EC91611126C04F
:1001400030953E233C938FBF08952730A9F0283087
:10015000C9F0243049F7809180008F7D03C08091E1
:1001600080008F7780938000DFCF84B58F7784BD48
:10017000DBCF84B58F7DFBCF8091B0008F778093EC
:10018000B000D2CF8091B0008F7DF9CF3E2BDACF77
:100190003FB7F8948091050190910601A091070165
:1001A000B091080126B5A89B05C02F3F19F0019614
:1001B000A11DB11D3FBFBA2FA92F982F8827BC01C1
:1001C000CD01620F711D811D911D42E0660F771FE9
:1001D000881F991F4A95D1F708958F929F92AF92E9
:1001E000BF92CF92DF92EF92FF920E94C8004B0124
:1001F0005C0188EEC82E83E0D82EE12CF12C0E9401
:10020000C800681979098A099B09683E734081050D
:100210009105A8F321E0C21AD108E108F10888EE9F
:10022000880E83E0981EA11CB11CC114D104E10406
:10023000F10429F7FF90EF90DF90CF90BF90AF903F
:100240009F908F9008951F920F920FB60F921124D6
:100250002F933F938F939F93AF93BF93809101010F
:1002600090910201A0910301B0910401309100012D
:1002700023E0230F2D3758F50196A11DB11D2093C2
:1002800000018093010190930201A0930301B093B8
:1002900004018091050190910601A0910701B091A0
:1002A00008010196A11DB11D8093050190930601DF
:1002B000A0930701B0930801BF91AF919F918F91D7
:1002C0003F912F910F900FBE0F901F90189526E829
:1002D000230F0296A11DB11DD2CF90E0FC01EC5579
:1002E000FF4F249180579F4FFC018491882399F000
:1002F00090E0880F991FFC01EA57FF4FA591B49138
:10030000FC01E458FF4F859194918FB7F894EC91DC
:10031000E22BEC938FBF0895789484B5826084BDFE
:1003200084B5816084BD85B5826085BD85B58160F9
:1003300085BD80916E00816080936E001092810077
:100340008091810082608093810080918100816032
:1003500080938100809180008160809380008091F3
:10036000B10084608093B1008091B000816080937F
:10037000B00080917A00846080937A0080917A0046
:10038000826080937A0080917A00816080937A0005
:1003900080917A00806880937A001092C100C0E05A
:1003A000D0E061E0809109010E947C0061E08091D1
:1003B0000A010E947C0061E080910B010E947C0098
:1003C0000E94ED0060E0809109010E947C0060E0E5
:1003D00080910A010E947C0060E080910B010E94E4
:1003E0007C000E94ED002097E1F20E940000D9CF2E
:1003F000E9E0F1E0148213821682158210861782DA
:100400008CE080838BE081838AE082838CE00E9491
:100410006D018BE00E946D018AE00C946D01EE0F7E
:0E042000FF1F0590F491E02D0994F894FFCF92
:00000001FF
